:100000000C9434000C9453000C9451000C94510047
:100010000C9451000C9451000C9451000C9451001C
:100020000C9451000C9451000C9451000C9451000C
:100030000C9451000C9451000C9451000C945100FC
:100040000C9451000C9451000C9451000C945100EC
:100050000C9451000C9451000C9451000C945100DC
:100060000C9451000C94510011241FBECFEFD8E026
:10007000DEBFCDBF12E0A0E0B1E0E2E4FFE002C0ED
:1000800005900D92A032B107D9F712E0A0E2B2E0DC
:1000900001C01D92A133B107E1F70E9421020C9427
:1000A0009F070C9400001F920F920FB60F9211241D
:1000B0008F939F9381E090E09093210280932002A0
:1000C0009F918F910F900FBE0F901F901895982FB2
:1000D0002A9881E18EBD0DB407FEFDCF8EB59EBD81
:1000E0000DB407FEFDCF8EB52A9A08958EBD0DB4CE
:1000F00007FEFDCF8EB508952A9A229A8CB58061AD
:100100008CBD8CB580648CBD259A239A089584E9B2
:100110008093BC008091BC008823E1F3089540E007
:1001200050E011C04330510530F080912A028F5FBA
:1001300080932A0208952F5F3F4F8DEF293E3807A5
:1001400021F44F5F5F4F20E030E08091BC0087FFDB
:10015000E9CF089584EA8093BC000E948F0008953F
:100160008093BB0084E88093BC000E948F000895B8
:1001700082EA0E94B00081E00E94B00080E00E940C
:10018000B00084E98093BC008091BC008823E1F337
:1001900010922102109220020895CF92DF92EF92E6
:1001A000FF920F931F93CF93DF93662361F1162F76
:1001B000693008F018E08093BB0084E88093BC00AD
:1001C0000E948F00C0E0D0E0012F10E07801089479
:1001D000E108F10894E8C92E84ECD82E11C0CE15A0
:1001E000DF051CF4D092BC0002C0C092BC000E948B
:1001F0008F008091BB00FE01EE5DFD4F8083219654
:10020000C017D10764F3DF91CF911F910F91FF9039
:10021000EF90DF90CF9008950E94AA0082EA0E949A
:10022000B00082E00E94B00084E98093BC0080911D
:10023000BC008823E1F30E94AA0083EA63E00E94E5
:10024000CD0084E98093BC008091BC008823E1F359
:100250004091220250E0CA0180779070E4E09595C9
:100260008795EA95E1F79C0173E0220F331F7A9599
:10027000E1F7880F991F280F391F4F705070240F16
:10028000351F30932E0220932D024091230250E01F
:10029000CA0180779070B4E095958795BA95E1F79B
:1002A0009C01A3E0220F331FAA95E1F7880F991F45
:1002B000280F391F4F705070240F351F30932C02B8
:1002C00020932B024091240250E0CA018073907069
:1002D000E4E095958795EA95E1F79C0173E0220F9C
:1002E000331F7A95E1F7880F991F280F391F4F7038
:1002F0005070240F351F3093300220932F02089541
:10030000E9EBF0E080818E7F808380818D7F808328
:1003100088E48093B8000895FC016AE070E00E94D0
:1003200041079B01A4E0220F331FAA95E1F7CF01FB
:100330006AE070E00E944107820F08950F931F93B7
:10034000CF93DF938C01EB010E94AA0082EA0E9406
:10035000B00089E00E94B000C8010E948C018F7734
:100360000E94B000C336D10529F0CE010E948C0155
:100370008F7701C080E80E94B00084E98093BC00C0
:100380008091BC008823E1F30E94AA0082EA0E94C7
:10039000B00081E00E94B00082E00E94B00084E9D9
:1003A0008093BC008091BC008823E1F3DF91CF9162
:1003B0001F910F910895CF92DF92EF92FF920F93CA
:1003C0001F938C017B016A010E94AA0082EA0E94AD
:1003D000B00082E00E94B000C8010E948C010E941F
:1003E000B000C7010E948C010E94B000C6010E94AB
:1003F0008C010E94B00081E00E94B00080E00E9469
:10040000B00081E00E94B00080E00E94B00084E96A
:100410008093BC008091BC008823E1F31F910F9171
:10042000FF90EF90DF90CF900895299A80ED97E0AC
:1004300020E931E0F9013197F1F70197D9F72998CF
:1004400008956F927F928F929F92AF92BF92CF92B8
:10045000DF92EF92FF920F931F93DF93CF93CDB76D
:10046000DEB729970FB6F894DEBF0FBECDBF8091DF
:10047000B9008E7F8093B9008091B9008D7F809301
:10048000B90088E48093B8000E947C00209A219AE9
:100490005298DE011196E0E0F1E089E001900D92C2
:1004A0008150E1F78885992787FD9095805192408A
:1004B000EF81AAE0EA02F00111246D81772767FD40
:1004C0007095605172402C812A0290011124620FB4
:1004D000731F4A81552747FD50954051524029814D
:1004E0002A0290011124420F531F8E0F9F1F0E945A
:1004F000DB016091090170910A0180910B019091DB
:100500000C010E949E01E89A82E080936900789431
:1005100080910D0190910E0126E0880F991F2A9578
:10052000E1F7909581959F4F67E771E00E94410741
:100530004B018FEF90E0880E991E0E941502289AB9
:100540000FEF10E090E9E92E91E0F92E0CC088EC55
:1005500090E0F7013197F1F70197D9F7802F0E94CA
:10056000670001501040081519058CF780E593ECE1
:1005700020E931E0F9013197F1F70197D9F70DC082
:1005800088EC90E0F7013197F1F70197D9F7802FC8
:100590000E9467000F5F1F4F04C080E9E82E81E0D2
:1005A000F82E0F3F110564F728980E94150288EE77
:1005B00093E020E931E0F9013197F1F70197D9F79C
:1005C0000E941502B0E96B2EB1E07B2E80912002D3
:1005D00090912102892B89F483B7816083BF83B70F
:1005E000817F8C6083BF83B7816083BF889583B729
:1005F0008E7F83BF83B78E7F83BF809120029091CF
:100600002102892B19F3F8940E94B800289A299A9C
:100610000FEF10E00CC088EC90E0F3013197F1F798
:100620000197D9F7802F0E946700015010400815EC
:1006300019058CF760910F017091100180911101E3
:100640009091120120E030E040E752E40E947003F4
:100650005B016C01EE24FF240AC080E197E2F30104
:100660003197F1F70197D9F70894E11CF11CB70114
:10067000882777FD8095982F0E949A04A6019501FE
:100680000E946A0418164CF70CC088EC90E0F30145
:100690003197F1F70197D9F7802F0E9467000F5F1C
:1006A0001F4F0F3F11058CF780E090E060E070E095
:1006B00041E050E00E94DB01609113017091140150
:1006C00080911501909116010E94F804DC01CB0184
:1006D00063E670E00E949E0178942898299876CF6E
:1006E000A0E2B0E0E6E7F3E00C94680769837A8360
:1006F0008B839C832D833E834F835887CE01019645
:10070000BE01675F7F4F0E947006CE010596BE0155
:100710006F5E7F4F0E9470069985923088F08989BC
:100720008230C8F0943019F4823051F404C084301F
:1007300029F4923081F487E191E0C6C0923049F407
:1007400020E09A858A89981321E02A87CE010996AC
:10075000BBC0823049F420E09A858A89981321E051
:100760002A8BCE014196B0C02D843E844F84588898
:100770006D887E888F88988CEE24FF248701AA24B8
:10078000BB24650140E050E060E070E0E0E0F0E0B4
:10079000C10181709070892BE9F0E60CF71C081DEF
:1007A000191D9A01AB012A0D3B1D4C1D5D1D80E0FA
:1007B00090E0A0E0B0E0E614F7040805190520F485
:1007C00081E090E0A0E0B0E0BA01A901480F591F14
:1007D0006A1F7B1FAA0CBB1CCC1CDD1C97FE08C02B
:1007E00081E090E0A0E0B0E0A82AB92ACA2ADB2A7A
:1007F0003196E032F10549F0660C771C881C991C93
:100800005694479437942794C3CFFA85EA892B8965
:100810003C898B859C85280F391F2E5F3F4F17C061
:10082000CA0181709070892B61F016950795F79435
:10083000E79480E090E0A0E0B0E8E82AF92A0A2BEB
:100840001B2B76956795579547952F5F3F4F77FD03
:10085000E7CF0CC0440F551F661F771F17FD41607F
:10086000EE0CFF1C001F111F21503040403090E063
:10087000590790E0690790E4790760F32B8F3C8F6C
:10088000DB01CA018F779070A070B0708034910541
:10089000A105B10561F447FD0AC0E114F1040105A9
:1008A000110529F0405C5F4F6F4F7F4F40781A8EE3
:1008B000FE1711F081E08A8F4D8F5E8F6F8F78A3C6
:1008C00083E0898FCE0149960E949B05A096E2E1C4
:1008D0000C948407A8E1B0E0E0E7F4E00C9474071E
:1008E00069837A838B839C832D833E834F835887D0
:1008F00089E0E82EF12CEC0EFD1ECE010196B70129
:100900000E9470068E010F5E1F4FCE010596B80142
:100910000E9470068985823040F08989823028F0F3
:10092000C701B8010E94E80601C081E06896E6E0D0
:100930000C949007A8E0B0E0E0EAF4E00C947107B2
:100940009B01AC0183E08983DA01C9018827B7FDE7
:1009500083959927AA27BB27B82E21153105410574
:10096000510519F482E089833AC08823A9F0203028
:1009700080E0380780E0480780E8580729F460E005
:1009800070E080E09FEC30C0EE24FF248701E21A83
:10099000F30A040B150B02C079018A018EE1C82EFF
:1009A000D12CDC82CB82ED82FE820F831887C801B6
:1009B000B7010E944C0501971816190684F4082EF9
:1009C00004C0EE0CFF1C001F111F0A94D2F7ED8229
:1009D000FE820F831887C81AD90ADC82CB82BA82BA
:1009E000CE0101960E949B052896E9E00C948D07A4
:1009F000ACE0B0E0EEEFF4E00C94780769837A8322
:100A00008B839C83CE010196BE016B5F7F4F0E945A
:100A100070068D81823061F1823050F1843021F492
:100A20008E81882351F12EC02F81388537FD20C05B
:100A30006E812F3131051CF06623F9F023C08EE161
:100A400090E0821B930B29853A854B855C8504C019
:100A500056954795379527958A95D2F76623B1F035
:100A600050954095309521953F4F4F4F5F4F0EC0A9
:100A700020E030E040E050E009C02FEF3FEF4FEFC3
:100A80005FE704C020E030E040E050E8B901CA016F
:100A90002C96E2E00C949407EF92FF920F931F9331
:100AA0007B018C0180E0E81680E0F80681E0080711
:100AB00080E0180788F48FEFE816F10401051105AE
:100AC00031F028F088E090E0A0E0B0E017C080E0CE
:100AD00090E0A0E0B0E012C080E0E81680E0F80608
:100AE00080E0080781E0180728F088E190E0A0E0A6
:100AF000B0E004C080E190E0A0E0B0E020E230E0AF
:100B000040E050E0281B390B4A0B5B0B04C01695E4
:100B10000795F794E7948A95D2F7F701E15EFE4FC7
:100B20008081281B310941095109C9011F910F9189
:100B3000FF90EF900895DF92EF92FF920F931F9333
:100B4000FC01E480F58006811781D18080818230AC
:100B500048F480E090E0A0E1B0E0E82AF92A0A2B0E
:100B60001B2BA5C0843009F49FC0823021F4EE24F1
:100B7000FF24870105C0E114F1040105110519F4F2
:100B8000E0E0F0E096C0628173819FEF6238790700
:100B90000CF05BC022E83FEF261B370B2A313105F2
:100BA0002CF020E030E040E050E02AC0B801A7017E
:100BB000022E04C076956795579547950A94D2F70B
:100BC00081E090E0A0E0B0E004C0880F991FAA1F68
:100BD000BB1F2A95D2F70197A109B1098E219F2148
:100BE000A023B1230097A105B10521F081E090E099
:100BF000A0E0B0E09A01AB01282B392B4A2B5B2BEC
:100C0000DA01C9018F779070A070B07080349105BF
:100C1000A105B10539F427FF09C0205C3F4F4F4FB4
:100C20005F4F04C0215C3F4F4F4F5F4FE0E0F0E06B
:100C30002030A0E03A07A0E04A07A0E45A0710F0ED
:100C4000E1E0F0E079018A0127C06038710564F5C0
:100C5000FB01E158FF4FD801C7018F779070A0705A
:100C6000B07080349105A105B10539F4E7FE0DC0DF
:100C700080E490E0A0E0B0E004C08FE390E0A0E06A
:100C8000B0E0E80EF91E0A1F1B1F17FF05C01695DE
:100C90000795F794E794319687E016950795F794B2
:100CA000E7948A95D1F705C0EE24FF248701EFEF82
:100CB000F0E06E2F679566276795902F9F77D79402
:100CC000DD24D7948E2F8695492F462B582F5D29EA
:100CD000B701CA011F910F91FF90EF90DF90089527
:100CE000FC01DB01408151812281622F6F7770E02E
:100CF000221F2227221F9381892F880F822B282FC2
:100D000030E0991F9927991F11969C9311972115EF
:100D10003105A9F5411551056105710511F482E010
:100D200037C082E89FEF13969C938E9312979A0197
:100D3000AB0167E0220F331F441F551F6A95D1F79F
:100D400083E08C930DC0220F331F441F551F129652
:100D50008D919C911397019713969C938E93129764
:100D6000203080E0380780E0480780E4580758F3D7
:100D700014962D933D934D935C93179708952F3FB1
:100D8000310579F4411551056105710519F484E0C7
:100D90008C93089564FF03C081E08C9312C01C9271
:100DA00010C02F57304013963C932E93129783E038
:100DB0008C9387E0440F551F661F771F8A95D1F7E4
:100DC000706414964D935D936D937C93179708957B
:100DD0001F93DC01FB019C91923008F447C0808195
:100DE000823008F443C0943051F411961C91843041
:100DF00099F58181682F70E0611B71093FC08430D3
:100E000021F0923031F48230B9F18181882389F167
:100E10002DC011961C9111978230F1F08181181725
:100E2000D9F412962D913C91139782819381821768
:100E3000930794F028173907BCF014968D919D9173
:100E40000D90BC91A02D24813581468157812817B2
:100E500039074A075B0718F4112341F00AC08217CB
:100E60009307A407B50740F4112319F061E070E07F
:100E700005C06FEF7FEF02C060E070E0CB011F9113
:100E8000089597FB092E07260AD077FD04D00CD0D1
:100E900006D000201AF4709561957F4F0895F6F7FB
:100EA000909581959F4F0895AA1BBB1B51E107C0E8
:100EB000AA1FBB1FA617B70710F0A61BB70B881FEA
:100EC000991F5A95A9F780959095BC01CD01089579
:100ED0002F923F924F925F926F927F928F929F924A
:100EE000AF92BF92CF92DF92EF92FF920F931F9338
:100EF000CF93DF93CDB7DEB7CA1BDB0B0FB6F894E9
:100F0000DEBF0FBECDBF09942A88398848885F8428
:100F10006E847D848C849B84AA84B984C884DF8099
:100F2000EE80FD800C811B81AA81B981CE0FD11D7D
:100F30000FB6F894DEBF0FBECDBFED010895F89453
:020F4000FFCFE1
:100F420031383A35383A33320012003B0020030080
:100F520000803F0000803F00000000000000000011
:100F62000102020303030304040404040404040549
:100F7200050505050505050505050505050505061E
:100F820006060606060606060606060606060606FF
:100F920006060606060606060606060606060607EE
:100FA20007070707070707070707070707070707CF
:100FB20007070707070707070707070707070707BF
:100FC20007070707070707070707070707070707AF
:100FD200070707070707070707070707070707089E
:100FE200080808080808080808080808080808087F
:100FF200080808080808080808080808080808086F
:10100200080808080808080808080808080808085E
:10101200080808080808080808080808080808084E
:10102200080808080808080808080808080808083E
:10103200080808080808080808080808080808082E
:10104200080808080808080808080808080808081E
:101052000808080808080808080808080808080016
:00000001FF
