:100000000C9434000C9446000C9446000C9446006A
:100010000C9446000C9446000C9446000C94460048
:100020000C9446000C9446000C9446000C94460038
:100030000C9446000C9446000C9446000C94460028
:100040000C9446000C9446000C9446000C94460018
:100050000C9446000C9446000C9446000C94460008
:100060000C9446000C94460011241FBECFEFD8E03C
:10007000DEBFCDBF11E0A0E0B1E001C01D92AF3006
:10008000B107E1F70E94E3010C943D020C940000DB
:1000900084E98093BC008091BC008823E1F308953B
:1000A00040E050E011C04330510530F0809108012C
:1000B0008F5F8093080108952F5F3F4F8DEF293E9A
:1000C000380721F44F5F5F4F20E030E08091BC00A3
:1000D00087FFE9CF089584EA8093BC000E94500016
:1000E00008958093BB0084E88093BC000E94500078
:1000F000089582EA0E94710081E00E94710080E010
:100100000E94710084E98093BC008091BC00882328
:10011000E1F30895CF92DF92EF92FF920F931F9336
:10012000CF93DF93662361F1162F693008F018E052
:100130008093BB0084E88093BC000E945000C0E024
:10014000D0E0012F10E078010894E108F10894E86C
:10015000C92E84ECD82E11C0CE15DF051CF4D09228
:10016000BC0002C0C092BC000E9450008091BB0045
:10017000FE01E050FF4F80832196C017D10764F342
:10018000DF91CF911F910F91FF90EF90DF90CF9073
:1001900008950E946B0082EA0E94710082E00E9432
:1001A000710084E98093BC008091BC008823E1F356
:1001B0000E946B0083EA63E00E948A0084E98093D6
:1001C000BC008091BC008823E1F34091000150E025
:1001D000CA0180779070E4E095958795EA95E1F7FC
:1001E0009C0173E0220F331F7A95E1F7880F991F66
:1001F000280F391F4F705070240F351F30930C019A
:1002000020930B014091010150E0CA01807790706A
:10021000B4E095958795BA95E1F79C01A3E0220F8C
:10022000331FAA95E1F7880F991F280F391F4F70C8
:100230005070240F351F30930A012093090140911B
:10024000020150E0CA0180739070E4E095958795B3
:10025000EA95E1F79C0173E0220F331F7A95E1F7ED
:10026000880F991F280F391F4F705070240F351FAA
:1002700030930E0120930D0108958091B9008E7F77
:100280008093B9008091B9008D7F8093B90088E494
:100290008093B80088E893E120E931E0F9013197D3
:1002A000F1F70197D9F7299A88E893E120E931E03D
:1002B000F9013197F1F70197D9F729980895FC01D1
:1002C0006AE070E00E9416029B01A4E0220F331F37
:1002D000AA95E1F7CF016AE070E00E941602820F52
:1002E0000895EF92FF920F931F938C017B010E9460
:1002F0006B0082EA0E94710089E00E947100C801CF
:100300000E945F018F770E947100C7010E945F0108
:100310008F770E94710084E98093BC008091BC00BB
:100320008823E1F30E946B0082EA0E94710081E061
:100330000E94710082E00E94710084E98093BC00F9
:100340008091BC008823E1F31F910F91FF90EF9003
:100350000895CF92DF92EF92FF920F931F938C013B
:100360007B016A010E946B0082EA0E94710082E0B8
:100370000E947100C8010E945F010E947100C701C4
:100380000E945F010E947100C6010E945F010E94ED
:10039000710081E00E94710080E00E94710081E0A4
:1003A0000E94710080E00E94710084E98093BC008B
:1003B0008091BC008823E1F31F910F91FF90EF9093
:1003C000DF90CF900895CF93DF93219A299A88E800
:1003D00093E120E931E0F9013197F1F70197D9F77D
:1003E00029980E943D018DE290E061E070E041E0DB
:1003F00050E00E94A901C0E9D1E00E94C9008091AB
:100400000B0190910C01C29709F4299A80910B017C
:1004100090910C01892B09F4299A88E893E1FE0157
:100420003197F1F70197D9F72998E7CF97FB092E74
:1004300007260AD077FD04D00CD006D000201AF48D
:10044000709561957F4F0895F6F7909581959F4F30
:100450000895AA1BBB1B51E107C0AA1FBB1FA6170B
:10046000B70710F0A61BB70B881F991F5A95A9F75D
:0E04700080959095BC01CD010895F894FFCFC2
:00000001FF
