:100000000C9434000C9451000C9451000C94510049
:100010000C9451000C9451000C9451000C9451001C
:100020000C9451000C9451000C9451000C9451000C
:100030000C9451000C9451000C9451000C945100FC
:100040000C9451000C9451000C9451000C945100EC
:100050000C9451000C9451000C9451000C945100DC
:100060000C9451000C94510011241FBECFEFD8E026
:10007000DEBFCDBF11E0A0E0B1E0E4ECF4E002C0EF
:1000800005900D92AA30B107D9F711E0AAE0B1E0CE
:1000900001C01D92AD31B107E1F70E9473000C94CD
:1000A00060020C940000982F2A9881E18EBD0DB457
:1000B00007FEFDCF8EB59EBD0DB407FEFDCF8EB5FC
:1000C0002A9A08958EBD0DB407FEFDCF8EB5089512
:1000D0002A9A229A8CB580618CBD8CB580648CBDC7
:1000E000259A239A08951F93CF93DF938091B900A7
:1000F0008E7F8093B9008091B9008D7F8093B90085
:1001000088E48093B800209A219A5298299A289AD4
:100110000E94680080E197E220E931E0F90131971F
:10012000F1F70197D9F7299810E0C0E9D1E00CC0A8
:10013000299A812F0E94530084EF91E0FE013197AC
:10014000F1F70197D9F71F5F1F3F91F72998812F8A
:100150000E94530084EF91E0FE013197F1F701977F
:10016000D9F7115099F7F0CF84E98093BC008091C2
:10017000BC008823E1F3089540E050E011C0433013
:10018000510530F0809114018F5F80931401089520
:100190002F5F3F4F8DEF293E380721F44F5F5F4FB0
:1001A00020E030E08091BC0087FFE9CF089584EA29
:1001B0008093BC000E94BC0008958093BB0084E83B
:1001C0008093BC000E94BC00089582EA0E94DD007A
:1001D00081E00E94DD0080E00E94DD0084E98093E0
:1001E000BC008091BC008823E1F30895CF92DF9298
:1001F000EF92FF920F931F93CF93DF93662361F1EA
:10020000162F693008F018E08093BB0084E88093D3
:10021000BC000E94BC00C0E0D0E0012F10E07801DB
:100220000894E108F10894E8C92E84ECD82E11C096
:10023000CE15DF051CF4D092BC0002C0C092BC00F9
:100240000E94BC008091BB00FE01E45FFE4F8083F2
:100250002196C017D10764F3DF91CF911F910F91C1
:10026000FF90EF90DF90CF9008950E94D70082EA30
:100270000E94DD0082E00E94DD0084E98093BC00E2
:100280008091BC008823E1F30E94D70083EA63E0F9
:100290000E94F60084E98093BC008091BC00882312
:1002A000E1F340910C0150E0CA0180779070E4E0E6
:1002B00095958795EA95E1F79C0173E0220F331F2E
:1002C0007A95E1F7880F991F280F391F4F705070EA
:1002D000240F351F309318012093170140910D0111
:1002E00050E0CA0180779070B4E095958795BA95F3
:1002F000E1F79C01A3E0220F331FAA95E1F7880FD5
:10030000991F280F391F4F705070240F351F3093DD
:1003100016012093150140910E0150E0CA0180732F
:100320009070E4E095958795EA95E1F79C0173E07C
:10033000220F331F7A95E1F7880F991F280F391F75
:100340004F705070240F351F30931C0120931B01F8
:100350000895E9EBF0E080818E7F808380818D7F3E
:10036000808388E48093B8000895FC016AE070E01F
:100370000E9439029B01A4E0220F331FAA95E1F7E6
:10038000CF016AE070E00E943902820F0895EF9277
:10039000FF920F931F938C017B010E94D70082EA8A
:1003A0000E94DD0089E00E94DD00C8010E94B501C5
:1003B0008F770E94DD00C7010E94B5018F770E94F0
:1003C000DD0084E98093BC008091BC008823E1F3C8
:1003D0000E94D70082EA0E94DD0081E00E94DD00D9
:1003E00082E00E94DD0084E98093BC008091BC0023
:1003F0008823E1F31F910F91FF90EF900895CF9222
:10040000DF92EF92FF920F931F938C017B016A01A1
:100410000E94D70082EA0E94DD0082E00E94DD0097
:10042000C8010E94B5010E94DD00C7010E94B5010C
:100430000E94DD00C6010E94B5010E94DD0081E03E
:100440000E94DD0080E00E94DD0081E00E94DD006E
:1004500080E00E94DD0084E98093BC008091BC00B4
:100460008823E1F31F910F91FF90EF90DF90CF90E1
:10047000089597FB092E07260AD077FD04D00CD0EB
:1004800006D000201AF4709561957F4F0895F6F715
:10049000909581959F4F0895AA1BBB1B51E107C002
:1004A000AA1FBB1FA617B70710F0A61BB70B881F04
:1004B000991F5A95A9F780959095BC01CD01089593
:0404C000F894FFCFDE
:0A04C400040004000400040004001A
:00000001FF
