:100000000C9434000C9453000C9451000C94510047
:100010000C9451000C9451000C9451000C9451001C
:100020000C9451000C9451000C9451000C9451000C
:100030000C9451000C9451000C9451000C945100FC
:100040000C9451000C9451000C9451000C945100EC
:100050000C9451000C9451000C9451000C945100DC
:100060000C9451000C94510011241FBECFEFD8E026
:10007000DEBFCDBF11E0A0E0B1E0E8E9F2E102C0EF
:1000800005900D92A032B107D9F711E0A0E2B1E0DE
:1000900001C01D92A133B107E1F70E9421020C9427
:1000A0004A090C9400001F920F920FB60F92112470
:1000B0008F939F9381E090E09093210180932001A2
:1000C0009F918F910F900FBE0F901F901895982FB2
:1000D0002A9881E18EBD0DB407FEFDCF8EB59EBD81
:1000E0000DB407FEFDCF8EB52A9A08958EBD0DB4CE
:1000F00007FEFDCF8EB508952A9A229A8CB58061AD
:100100008CBD8CB580648CBD259A239A089584E9B2
:100110008093BC008091BC008823E1F3089540E007
:1001200050E011C04330510530F080912A018F5FBB
:1001300080932A0108952F5F3F4F8DEF293E3807A6
:1001400021F44F5F5F4F20E030E08091BC0087FFDB
:10015000E9CF089584EA8093BC000E948F0008953F
:100160008093BB0084E88093BC000E948F000895B8
:10017000F89482EA0E94B00081E00E94B00080E022
:100180000E94B00084E98093BC008091BC00882369
:10019000E1F3109221011092200178940895CF92FA
:1001A000DF92EF92FF920F931F93CF93DF9366231B
:1001B00061F1162F693008F018E08093BB0084E8E5
:1001C0008093BC000E948F00C0E0D0E0012F10E0BF
:1001D00078010894E108F10894E8C92E84ECD82E3F
:1001E00011C0CE15DF051CF4D092BC0002C0C09235
:1001F000BC000E948F008091BB00FE01EE5DFE4FAF
:1002000080832196C017D10764F3DF91CF911F91AE
:100210000F91FF90EF90DF90CF9008950E94AA0079
:1002200082EA0E94B00082E00E94B00084E98093DC
:10023000BC008091BC008823E1F30E94AA0083EAFD
:1002400063E00E94CF0084E98093BC008091BC00F1
:100250008823E1F34091220150E0CA018077907039
:10026000E4E095958795EA95E1F79C0173E0220F0C
:10027000331F7A95E1F7880F991F280F391F4F70A8
:100280005070240F351F30932E0120932D01409183
:10029000230150E0CA0180779070B4E0959587956E
:1002A000BA95E1F79C01A3E0220F331FAA95E1F76D
:1002B000880F991F280F391F4F705070240F351F5A
:1002C00030932C0120932B014091240150E0CA016E
:1002D00080739070E4E095958795EA95E1F79C012D
:1002E00073E0220F331F7A95E1F7880F991F280FCB
:1002F000391F4F705070240F351F309330012093F9
:100300002F010895E9EBF0E080818E7F808380816A
:100310008D7F808388E48093B8000895FC016AE0B3
:1003200070E00E94EC089B01A4E0220F331FAA9505
:10033000E1F7CF016AE070E00E94EC08820F0895B7
:100340000F931F93CF93DF938C01EB010E94AA00C0
:1003500082EA0E94B00089E00E94B000C8010E94B9
:100360008E018F770E94B000C336D10531F0CE01E7
:100370000E948E018F770E94B00084E98093BC00B8
:100380008091BC008823E1F30E94AA0082EA0E94C7
:10039000B00081E00E94B00082E00E94B00084E9D9
:1003A0008093BC008091BC008823E1F3DF91CF9162
:1003B0001F910F910895CF92DF92EF92FF920F93CA
:1003C0001F938C017B016A010E94AA0082EA0E94AD
:1003D000B00082E00E94B000C8010E948E010E941D
:1003E000B000C7010E948E010E94B000C6010E94A9
:1003F0008E010E94B00081E00E94B00080E00E9467
:10040000B00081E00E94B00080E00E94B00084E96A
:100410008093BC008091BC008823E1F31F910F9171
:10042000FF90EF90DF90CF900895299A80ED97E0AC
:1004300020E931E0F9013197F1F70197D9F72998CF
:1004400008954F925F926F927F928F929F92AF9298
:10045000BF92CF92DF92EF92FF920F931F93DF93A1
:10046000CF93CDB7DEB729970FB6F894DEBF0FBE96
:10047000CDBF8091B9008E7F8093B9008091B90083
:100480008D7F8093B90088E48093B8000E947C003F
:10049000209A219A5298DE011196E0E0F1E089E07D
:1004A00001900D928150E1F78885992787FD9095FD
:1004B00080519240EF81AAE0EA02F00111246D819F
:1004C000772767FD7095605172402C812A02900158
:1004D0001124620F731F4A81552747FD50954051E3
:1004E000524029812A0290011124420F531F8E0F7E
:1004F0009F1F0E94DB016091090170910A018091A8
:100500000B0190910C010E94A001E89A82E0809377
:100510006900789480910D0190910E0126E0880F7A
:10052000991F2A95E1F7909581959F4F67E771E0B4
:100530000E94EC083B018FEF90E0680E791E0E944C
:100540001502289A0FEF10E090E9E92E91E0F92EBC
:100550000CC088EC90E0F7013197F1F70197D9F7DB
:10056000802F0E94670001501040061517058CF778
:1005700080E593EC20E931E0F9013197F1F701973B
:10058000D9F70DC088EC90E0F7013197F1F70197AA
:10059000D9F7802F0E9467000F5F1F4F04C080E9CA
:1005A000E82E81E0F82E0F3F110564F728980E948D
:1005B000150288EE93E020E931E0F9013197F1F777
:1005C0000197D9F70E94150210E9412E11E0512E32
:1005D0008091200190912101892B89F483B781605A
:1005E00083BF83B7817F8C6083BF83B7816083BF04
:1005F000889583B78E7F83BF83B78E7F83BF8091BB
:10060000200190912101892B19F30E94B800289AAA
:10061000299ABFEFCB2ED12C0DC088EC90E0F201CF
:100620003197F1F70197D9F78C2D0E946700089454
:10063000C108D108C614D70484F760910F017091E6
:100640001001809111019091120120E030E64AE6FC
:1006500057E40E9468054B015C0120E030E04AE766
:1006600055E40E9468057B018C0120E030E040E801
:100670005FE30E94C20688231CF461E070E022C0A0
:10068000C801B70120E03FEF4FE757E40E94620640
:100690001816A4F4C501B40120E030E040E251E4B2
:1006A0000E9468050E94920305C0C2010197F1F7FC
:1006B0006150704061157105C1F715C0C801B701DF
:1006C0000E949203CB010197F1F70DC088EC90E0F6
:1006D000F2013197F1F70197D9F78C2D0E9467004D
:1006E0000894C11CD11C9FEFC916D1047CF780E08F
:1006F00090E060E070E041E050E00E94DB0160913A
:1007000013017091140180911501909116010E94BE
:10071000F206DC01CB0163E670E00E94A00128989C
:10072000299856CFEF92FF920F931F937B018C0174
:1007300020E030E040E05FE40E94920688238CF0E5
:10074000C801B70120E030E040E05FE40E940A0504
:100750000E94F2069B01AC012050304040405048BE
:1007600006C0C801B7010E94F2069B01AC01B901A5
:10077000CA011F910F91FF90EF900895A0E0B0E0A3
:10078000E4ECF3E00C941309DC012B01FA019C91D9
:10079000923008F439C1EB018881823008F433C10A
:1007A000943069F4843009F02FC111969C9111970F
:1007B0008981981709F428C1A7E1B1E025C18430E7
:1007C00009F421C18230A9F4923009F01DC19A01C7
:1007D000AD0188E0EA010990AE01E90109929E01AC
:1007E0008150C1F7E201898111969C91892381830F
:1007F00008C1923009F407C112962D903C901397CE
:10080000EB018A819B811496AD90BD90CD90DC90D8
:100810001797EC80FD800E811F819101281B390BF9
:10082000B90137FF04C066277727621B730B60325C
:1008300071050CF061C0121613066CF53701480102
:10084000062E04C096948794779467940A94D2F7FE
:1008500021E030E040E050E004C0220F331F441F8D
:10086000551F6A95D2F721503040404050402E210C
:100870003F2140235123211531054105510521F028
:1008800021E030E040E050E079018A01E628F728D5
:10089000082919293CC0232BD1F1260E371E35011A
:1008A0004601062E04C096948794779467940A9420
:1008B000D2F721E030E040E050E004C0220F331FC7
:1008C000441F551F6A95D2F7215030404040504098
:1008D0002A213B214C215D2121153105410551057E
:1008E00021F021E030E040E050E059016A01A62803
:1008F000B728C828D9280BC0821593052CF01C01F5
:10090000AA24BB24650103C0EE24FF2487011196AD
:100910009C91D20111968C91981709F445C09923A6
:1009200039F0A80197012A193B094C095D0906C055
:10093000A60195012E193F09400B510B57FD08C028
:1009400011823382228224833583468357831DC0DC
:1009500081E081833382228288279927DC01821BF0
:10096000930BA40BB50B84839583A683B7830DC02B
:10097000220F331F441F551F24833583468357831B
:10098000828193810197938382832481358146817B
:100990005781DA01C9010197A109B1098F5F9F4F02
:1009A000AF4FBF4328F30BC0918333822282EA0CFE
:1009B000FB1C0C1D1D1DE482F5820683178383E05A
:1009C0008083248135814681578157FF1AC0C90130
:1009D000AA2797FDA095BA2F81709070A070B07073
:1009E0005695479537952795822B932BA42BB52B9E
:1009F00084839583A683B7838281938101969383B1
:100A00008283DF0101C0D201CD01CDB7DEB7E2E1C3
:100A10000C942F09A0E2B0E0E0E1F5E00C941F098E
:100A200069837A838B839C832D833E834F8358878E
:100A3000E9E0EE2EF12CEC0EFD1ECE010196B70181
:100A40000E941B088E010F5E1F4FCE010596B80154
:100A50000E941B088A8991E089278A8BC701B80107
:100A6000AE01475E5F4F0E94BE030E944607A096FC
:100A7000E6E00C943B09A0E2B0E0E1E4F5E00C9480
:100A80001F0969837A838B839C832D833E834F83E5
:100A90005887F9E0EF2EF12CEC0EFD1ECE010196E9
:100AA000B7010E941B088E010F5E1F4FCE010596F5
:100AB000B8010E941B08C701B801AE01475E5F4F35
:100AC0000E94BE030E944607A096E6E00C943B09F4
:100AD000A0E2B0E0EEE6F5E00C94130969837A83B6
:100AE0008B839C832D833E834F835887CE01019651
:100AF000BE01675F7F4F0E941B08CE010596BE01B5
:100B00006F5E7F4F0E941B089985923088F089891B
:100B10008230C8F0943019F4823051F404C084302B
:100B200029F4923081F487E191E0C6C0923049F413
:100B300020E09A858A89981321E02A87CE010996B8
:100B4000BBC0823049F420E09A858A89981321E05D
:100B50002A8BCE014196B0C02D843E844F845888A4
:100B60006D887E888F88988CEE24FF248701AA24C4
:100B7000BB24650140E050E060E070E0E0E0F0E0C0
:100B8000C10181709070892BE9F0E60CF71C081DFB
:100B9000191D9A01AB012A0D3B1D4C1D5D1D80E006
:100BA00090E0A0E0B0E0E614F7040805190520F491
:100BB00081E090E0A0E0B0E0BA01A901480F591F20
:100BC0006A1F7B1FAA0CBB1CCC1CDD1C97FE08C037
:100BD00081E090E0A0E0B0E0A82AB92ACA2ADB2A86
:100BE0003196E032F10549F0660C771C881C991C9F
:100BF0005694479437942794C3CFFA85EA892B8972
:100C00003C898B859C85280F391F2E5F3F4F17C06D
:100C1000CA0181709070892B61F016950795F79441
:100C2000E79480E090E0A0E0B0E8E82AF92A0A2BF7
:100C30001B2B76956795579547952F5F3F4F77FD0F
:100C4000E7CF0CC0440F551F661F771F17FD41608B
:100C5000EE0CFF1C001F111F21503040403090E06F
:100C6000590790E0690790E4790760F32B8F3C8F78
:100C7000DB01CA018F779070A070B070803491054D
:100C8000A105B10561F447FD0AC0E114F1040105B5
:100C9000110529F0405C5F4F6F4F7F4F40781A8EEF
:100CA000FE1711F081E08A8F4D8F5E8F6F8F78A3D2
:100CB00083E0898FCE0149960E944607A096E2E123
:100CC0000C942F09A8E1B0E0E8E6F6E00C941F09C7
:100CD00069837A838B839C832D833E834F835887DC
:100CE00089E0E82EF12CEC0EFD1ECE010196B70135
:100CF0000E941B088E010F5E1F4FCE010596B801A2
:100D00000E941B088985823040F08989823028F052
:100D1000C701B8010E94930801C08FEF6896E6E012
:100D20000C943B09A8E1B0E0E8E9F6E00C941F0957
:100D300069837A838B839C832D833E834F8358877B
:100D400089E0E82EF12CEC0EFD1ECE010196B701D4
:100D50000E941B088E010F5E1F4FCE010596B80141
:100D60000E941B088985823040F08989823028F0F2
:100D7000C701B8010E94930801C08FEF6896E6E0B2
:100D80000C943B09A8E1B0E0E8ECF6E00C941F09F4
:100D900069837A838B839C832D833E834F8358871B
:100DA00089E0E82EF12CEC0EFD1ECE010196B70174
:100DB0000E941B088E010F5E1F4FCE010596B801E1
:100DC0000E941B088985823040F08989823028F092
:100DD000C701B8010E94930801C081E06896E6E06F
:100DE0000C943B09ACE0B0E0E8EFF6E00C9423098A
:100DF00069837A838B839C83CE010196BE016B5FEE
:100E00007F4F0E941B088D81823061F1823050F14A
:100E1000843021F48E81882351F12EC02F813885B2
:100E200037FD20C06E812F3131051CF06623F9F0AB
:100E300023C08EE190E0821B930B29853A854B8578
:100E40005C8504C056954795379527958A95D2F7C6
:100E50006623B1F050954095309521953F4F4F4F07
:100E60005F4F0EC020E030E040E050E009C02FEFBF
:100E70003FEF4FEF5FE704C020E030E040E050E894
:100E8000B901CA012C96E2E00C943F09DF92EF927F
:100E9000FF920F931F93FC01E480F5800681178178
:100EA000D1808081823048F480E090E0A0E1B0E021
:100EB000E82AF92A0A2B1B2BA5C0843009F49FC00D
:100EC000823021F4EE24FF24870105C0E114F104EF
:100ED0000105110519F4E0E0F0E096C0628173812C
:100EE0009FEF623879070CF05BC022E83FEF261BCA
:100EF000370B2A3131052CF020E030E040E050E0A3
:100F00002AC0B801A701022E04C0769567955795AF
:100F100047950A94D2F781E090E0A0E0B0E004C0E9
:100F2000880F991FAA1FBB1F2A95D2F70197A10905
:100F3000B1098E219F21A023B1230097A105B105FE
:100F400021F081E090E0A0E0B0E09A01AB01282B15
:100F5000392B4A2B5B2BDA01C9018F779070A07077
:100F6000B07080349105A105B10539F427FF09C09F
:100F7000205C3F4F4F4F5F4F04C0215C3F4F4F4FAE
:100F80005F4FE0E0F0E02030A0E03A07A0E04A0741
:100F9000A0E45A0710F0E1E0F0E079018A0127C0EF
:100FA0006038710564F5FB01E158FF4FD801C701B6
:100FB0008F779070A070B07080349105A105B10555
:100FC00039F4E7FE0DC080E490E0A0E0B0E004C09A
:100FD0008FE390E0A0E0B0E0E80EF91E0A1F1B1FAF
:100FE00017FF05C016950795F794E794319687E0AB
:100FF00016950795F794E7948A95D1F705C0EE24E6
:10100000FF248701EFEFF0E06E2F67956627679565
:10101000902F9F77D794DD24D7948E2F8695492FD4
:10102000462B582F5D29B701CA011F910F91FF90E0
:10103000EF90DF900895FC01DB0140815181228116
:10104000622F6F7770E0221F2227221F9381892F42
:10105000880F822B282F30E0991F9927991F11960E
:101060009C93119721153105A9F54115510561058D
:10107000710511F482E037C082E89FEF13969C93CC
:101080008E9312979A01AB0167E0220F331F441F22
:10109000551F6A95D1F783E08C930DC0220F331F43
:1010A000441F551F12968D919C911397019713968B
:1010B0009C938E931297203080E0380780E0480799
:1010C00080E4580758F314962D933D934D935C9309
:1010D000179708952F3F310579F4411551056105A2
:1010E000710519F484E08C93089564FF03C081E0D6
:1010F0008C9312C01C9210C02F57304013963C9313
:101100002E93129783E08C9387E0440F551F661F40
:10111000771F8A95D1F7706414964D935D936D9304
:101120007C93179708951F93DC01FB019C919230EB
:1011300008F447C08081823008F443C0943051F4F1
:1011400011961C91843099F58181682F70E0611BA4
:1011500071093FC0843021F0923031F48230B9F10E
:101160008181882389F12DC011961C9111978230BD
:10117000F1F081811817D9F412962D913C911397B3
:10118000828193818217930794F028173907BCF066
:1011900014968D919D910D90BC91A02D2481358147
:1011A00046815781281739074A075B0718F411232E
:1011B00041F00AC082179307A407B50740F4112332
:1011C00019F061E070E005C06FEF7FEF02C060E0F2
:1011D00070E0CB011F91089597FB092E07260AD0D6
:1011E00077FD04D00CD006D000201AF470956195DC
:1011F0007F4F0895F6F7909581959F4F0895AA1B0C
:10120000BB1B51E107C0AA1FBB1FA617B70710F0F1
:10121000A61BB70B881F991F5A95A9F78095909523
:10122000BC01CD0108952F923F924F925F926F9231
:101230007F928F929F92AF92BF92CF92DF92EF9266
:10124000FF920F931F93CF93DF93CDB7DEB7CA1BE7
:10125000DB0B0FB6F894DEBF0FBECDBF09942A8812
:10126000398848885F846E847D848C849B84AA84BA
:10127000B984C884DF80EE80FD800C811B81AA8147
:10128000B981CE0FD11D0FB6F894DEBF0FBECDBF12
:08129000ED010895F894FFCF71
:1012980032313A33363A31340015002500F4010072
:1012A80000803F0000803F000000000000000000B8
:00000001FF
