:100000000C9434000C9451000C9451000C94510049
:100010000C9451000C9451000C9451000C9451001C
:100020000C9451000C9451000C9451000C9451000C
:100030000C9451000C9451000C9451000C945100FC
:100040000C9451000C9451000C9451000C945100EC
:100050000C9451000C9451000C9451000C945100DC
:100060000C9451000C94510011241FBECFEFD8E026
:10007000DEBFCDBF11E0A0E0B1E0E8E9F4E002C0EE
:1000800005900D92AA30B107D9F711E0AAE0B1E0CE
:1000900001C01D92AD31B107E1F70E946B000C94D5
:1000A0004A020C9400002A98E0EAFFE03197F1F749
:1000B00091E19EBD9DB52EB530E030931A0120939D
:1000C00019018EBD8DB58EB590E090931A01809385
:1000D00019012A9A0895CF93DF938091B9008E7FFA
:1000E0008093B9008091B9008D7F8093B90088E436
:1000F0008093B800209A219A5298229A259A239A9E
:1001000080ED8CBD29982A9A289A8FEF0E9453007F
:10011000C0E9D1E0299A80E197E2FE013197F1F739
:100120000197D9F7299880E197E2FE013197F1F71D
:100130000197D9F780E00E945300ECCF84E98093C7
:10014000BC008091BC008823E1F3089540E050E0BA
:1001500011C04330510530F0809114018F5F8093BE
:10016000140108952F5F3F4F8DEF293E380721F48A
:100170004F5F5F4F20E030E08091BC0087FFE9CF08
:10018000089584EA8093BC000E94A600089580939D
:10019000BB0084E88093BC000E94A600089582EA18
:1001A0000E94C70081E00E94C70080E00E94C70053
:1001B00084E98093BC008091BC008823E1F308951A
:1001C000CF92DF92EF92FF920F931F93CF93DF9323
:1001D000662361F1162F693008F018E08093BB00A8
:1001E00084E88093BC000E94A600C0E0D0E0012F0C
:1001F00010E078010894E108F10894E8C92E84EC35
:10020000D82E11C0CE15DF051CF4D092BC0002C060
:10021000C092BC000E94A6008091BB00FE01E45F7A
:10022000FE4F80832196C017D10764F3DF91CF91F1
:100230001F910F91FF90EF90DF90CF9008950E9453
:10024000C10082EA0E94C70082E00E94C70084E9E0
:100250008093BC008091BC008823E1F30E94C10020
:1002600083EA63E00E94E00084E98093BC0080910F
:10027000BC008823E1F340910C0150E0CA01807773
:100280009070E4E095958795EA95E1F79C0173E01D
:10029000220F331F7A95E1F7880F991F280F391F16
:1002A0004F705070240F351F3093180120931701A1
:1002B00040910D0150E0CA0180779070B4E09595AF
:1002C0008795BA95E1F79C01A3E0220F331FAA9509
:1002D000E1F7880F991F280F391F4F705070240FB6
:1002E000351F309316012093150140910E0150E007
:1002F000CA0180739070E4E095958795EA95E1F7DF
:100300009C0173E0220F331F7A95E1F7880F991F44
:10031000280F391F4F705070240F351F30931C0168
:1003200020931B010895E9EBF0E080818E7F8083AC
:1003300080818D7F808388E48093B8000895FC01DC
:100340006AE070E00E9423029B01A4E0220F331FA9
:10035000AA95E1F7CF016AE070E00E942302820FC4
:100360000895EF92FF920F931F938C017B010E94DF
:10037000C10082EA0E94C70089E00E94C700C8014C
:100380000E949F018F770E94C700C7010E949F01B2
:100390008F770E94C70084E98093BC008091BC00E5
:1003A0008823E1F30E94C10082EA0E94C70081E035
:1003B0000E94C70082E00E94C70084E98093BC00CD
:1003C0008091BC008823E1F31F910F91FF90EF9083
:1003D0000895CF92DF92EF92FF920F931F938C01BB
:1003E0007B016A010E94C10082EA0E94C70082E08C
:1003F0000E94C700C8010E949F010E94C700C70158
:100400000E949F010E94C700C6010E949F010E9496
:10041000C70081E00E94C70080E00E94C70081E021
:100420000E94C70080E00E94C70084E98093BC005E
:100430008091BC008823E1F31F910F91FF90EF9012
:10044000DF90CF90089597FB092E07260AD077FDFD
:1004500004D00CD006D000201AF4709561957F4F1F
:100460000895F6F7909581959F4F0895AA1BBB1BA1
:1004700051E107C0AA1FBB1FA617B70710F0A61BA4
:10048000B70B881F991F5A95A9F780959095BC01C5
:08049000CD010895F894FFCF9F
:0A0498000400040004000400040046
:00000001FF
